S0030000FC S10B002C0000000000000000C8 S12320037EE0007EE0007E26DF7E21AC7E29137E2012A6003608A600B72013A601B72014BF S12320230808DF2CEE00BD2012BDC046DE2C0808324A3626E13239DF2C39CE22128DD320DA S1232043F9DE0FAD0020FADF0B3936961627128102270ECE2069BDC06ADE0DBDC06ABDC049 S12320637832BDC29039454E44204F46200036BDC06ABDC062BDC0C9BDC06217BDC0C9BD80 S1232083C0783239BDC0C97EC0783637DF01960148D6022A014C599701D702DE01333239D8 S12320A33637DF019602D601445624028A809702D701DE01333239CE20F2DF0DCEC2A5BDE7 S10D20C3C11D86FDB73C0CBDC158D9 S12320CDCE0001C6028610FF3C0EBC3C0E2703BDE1AABD208D4A26EFCEFFFE5A26E7BDC188 S12320ED5FBD204D394350552042555300DE0FDF30BDC158BDC1FED72E972FCE002EBDC089 S123210DE3BDC024813A260EBDC2FE36D60F9610DE30BDC22832812C2708815C2709BDC1AF S123212D5F39DE30082003DE3009DF30BDC078BDC287BDC06220BDBDC158FE3C0EBDC287BC S123214DBDC062B63C10840FBDC0C9B63C11BDC0C9BDC078BDC02481492616C605CE3C08F2 S123216DBDC0BCA70008BDC0625A26F4BDC15820C981422608CE3C0EBDC0D820BD8147262B S10D218D05BDC16620B48148260593 S1232197BDC16D20AB810D2604BDC29039B73C15BDC062209BCE21BADF0BBDC290CE21C17A S12321B77EC391485754455354000658204558454355544520434841494E00203D4C204C2A S12321D74F4F5020524F5554494E45002044542054455354204255530020BA4820444F2099 S12321F742592048414E4400214455204946550024674D20554D454D00291309204A21BA7A S123221720BA0000203A24D7CE2250DF0DBDC158BDC1FE86EDB73C0CCE0000FF3C0EB73C7A S12322371586FEB73C0CBC3C0E2703BDE1AA86EDB73C0C0826E57E204D4C4F41442E462E41 S10C225752454700CE228CDF0D34  S1232260BDC158BDC1FE862DB73C0CCE0000FF3C0EB73C1586F2B73C0CBC3C0E2703BDE1F2 S1232280AA862DB73C0C0826E57E204D4C4F4144204F464653455400BDC158BDC1FEBD23A7 S12322A0348604B73C0CCE22E6DF0DBD23118605B73C0CCE22F1DF0DBD23118606B73C0CD7 S12322C0CE22FCDF0DBD2311868DB73C0CCE00FFFF3C0EB73C158603B73C0CCE2307DF0D95 S12322E0BD23117E204D494E4350432E4952382B00494E4350432E4952382D00494E4350A0 S1232300432E4952382A00494E4350432E49523400CE000008B73C15B63C0CC6F2F73C0C0E S10E2320BC3C0E2703BDE1AAB73C0C37 S123232B8C000026E4BD233439BDC1FE36862DB73C0C7F3C0E7F3C0FB73C153239CE23BC94 S123234BDF0DBDC1587F002ED62E178B01CE0000BDC2288C007F270A088B02CB02BDC23D89 S123236B20F186EDB73C0C7F3C0E7F3C0FB73C15BD233486F4B73C0CD62ECE0000F13C0F95 S123238B2719B63C0F3686F2B73C0C32BDC259FE3C0E3FBDC27086F4B73C0CB73C155C08DB S12323AB8C010026D87C002E8607912E2C9A7E204D49465553455100CE2459DF0DBDC15802 S12323CBBDC228CE0000DF2ED62E962FBDC23D0826F4CE0000DF2EDE2EFF3C0E86EDB73C2F S10C23EB0CB73C15CE0000DF30F4  S12323F4DE30FF3C0E862DB73C0CB73C159631D63054469702D701962FD62E485925339B7F S123241402D901252D9733D73286F4B73C0CF63C0FB73C15B63C0F91332604D1322703DEE7 S1232434323F9631D6308BAEC90025069731D73020AE962FD62E8B98C9002506972FD72ED1 S1232454208C7E204D414444455200CE24D8BD201520F8CE24F1DF0BCE24727EC391075837 S1232474204558454320434841494E00245F5220544553542E462E52454700221F4F2054C3 S1232494455354204F464653455400225B4E20494E43204F464653455400229853205345E0 S10C24B45155454E43494E4700C1  S12324BD2348502050432041444445520023C34920494E53504543540020FA06204A24F109 S12324DD221F0000225B0000229800002348000023C3000049465500B73C0FCE2567BDC154 S12324FD17368607B73C0CB73C15B73C15FE3C0EB73C15B73C1586FFB73C0C3239B73C0F89 S123251DBDC259CE2567BDC117BDC270FF3C0E36867DB73C0CB73C15B73C15B73C15B73C58 S123253D1586FFB73C0C32399610BDC158BD24F5BDC15FBDC28739961036BDC2FEDE0F3290 S123255DBDC158BD251ABDC15F392E0007606DBDC078BDC1588602BD24F5BDC287BDC06262 S10E257DCEF0000926FD8601BD24F508 S1232588BDC287860DBDC051BDC0464D27DCBDC15F39BDC078BDC1588606BD24F5BDC2876C S12325A8BDC0628607BD24F5BDC287BDC0628603BD24F5BDC287860DBDC051BDC0464D27EB S12325C8D7BDC15F39BDC1588605BD24F5DF2ED62FC40127F38604DE0FBD251A8605BD24FB S12325E8F5DF2ED62FC40227078604BD24F5DF0FBDC0464D27CFBDC15F399610D60FCE1001 S123260800BDC228BDC158BDC23D088C7FC026F7BDC15F39DF2EDE2E08080808DF2EE60043 S1232628A601EE022705BDC22820EB39BDC1588600CEFFFCBD251ACE0000DF0F8DBCBDC13C S10D264858CE102F86015FBDC22892 S12326524FC68008BDC23DDF2E962F8B2F972F24037C002EDE2E8C7F5F26DFCE100086AA5F S123267216BDC23D088C103026F7CE7F00BDC23D088C7F3026F7CE1C0086FF16BDC23DDFF8 S12326922E962F8B31972F24037C002EDE2E8C253026E6CE26ABBD261CBDC15F391000FF22 S12326B2FC0030FFFD0253FFFE0000FFFFAAAA10F0AAAA111FAAAA7EA0AAAA7ECFAAAA4706 S12326D2C8999947F7999947F900000000CE26EADF0BCE26F27EC3914445564943455300B7 S12326F208502050555400255447204745540025454B204B4559424F41524400256C4D206F S11227124D4F55534500259A55205541525400BB S123272125CD5320534554204D454D4F525900260254205445535420504943545552450032 S123274126344920494E53504543540020FADE0FBDC08517BDC190BDC0464D27F739DE0F19 S1232761BDC08517863EBDC051BDC0BC972E962EBDC17BBDC0464D27F539DE0FDF2ECE279A S1232781BDDF0D962FCE00005FBDC17B5CC10526F8088C080026F1CE00005FBDC190912FB2 S12327A1270B36962FBDC0C9BDC078323F5CC10526E9088C080026E2BD204D3950415454CA S12327C145524E00DE0FDF2ECE2816DF0D7F0030CE00005F96309B2F9730BDC17B5CC105CF S10E27E126F2088C080026EB7F003075 S12327ECCE00005F96309B2F9730BDC1909130270B369630BDC0C9BDC078323F5CC1052654 S123280CE3088C080026DC7E204D41445200DE0FDF2EBDC08581042EF99730BDC062D63011 S123282CBDC190BDC0C9BDC024813A2609BDC0BCBDC17BBDC024812C270139C104260708CE S123284CDF2E86FF97307C0030BDC078BDC287862DBDC0519630BDC09020C0BDE003810D06 S123286C26F939BDC0FBBDE003815326F9BDE0038039362749BDE01A368003973032CE00AF S123288C01BDE027AB00AB01972EDE01BDE01A9732BDC1909132270C368DC032BD20879635 S10D28AC323F20BF96329B2E972E78 S12328B6087A003026DCBDE01A43912E2706CE28F9BDC06A3239CE2902DF0DC600BDC0FB00 S12328D6BDE003810D2603BDC0FB815326F2BDE003810D26F98D824D26FBBD28675CC104EC S12328F62FDB395853554D204552520055524F4D20434D5000CE298ABD201520F8CE2983DD S1232916DF0BCE291E7EC391075220524541444C4F4F5000274F572057524954454C4F4F9B S12329365000275F50205041545445524E00277B5620414452455353494E470027C549200C S1232956494E535045435400281A552055524F4D20434F4D504152450028CC5820455845D8 S10E29764355544520434841494E009E S11D2981290B4D4943524F4D0004277D000027C70001277DFFFF27C70031E5 S9030000FC.EOR..EOF.