S0030000FC S10D002C00000000000000000000C6 S12320037EE0007EE0007EE0007E21927EE0007E2012A6003608A600B72013A601B720145A S12320230808DF2CEE00BD2012BDC046DE2C0808324A3626E13239DF2C39CE22628DD3208A S1232043F9DE0FAD0020FADF0B3936961627128102270ECE2069BDC06ADE0DBDC06ABDC049 S12320637832BDC29039454E44204F46200036BDC06ABDC062BDC0C9BDC06217BDC0C9BD80 S1232083C0783239BDC0C97EC0783637DF01960148D6022A014C599701D702DE01333239D8 S12320A33637DF019602D601445624028A809702D701DE01333239CE20F2DF0DCEC2A5BDE7 S10D20C3C11D86FDB73C0CBDC158D9 S12320CDCE0001C6028610FF3C0EBC3C0E2703BDE1AABD208D4A26EFCEFFFE5A26E7BDC188 S12320ED5FBD204D394350552042555300BDC29096104D271DCEC2A5BDC11DBDC1588101AD S123210D260AB73C15BDC04627F82006BDC166BDC024BDC29039BDC158FE3C0EBDC287BDC0 S123212DC062B63C10840FBDC0C9B63C11BDC0C9BDC078BDC02481492616C605CE3C08BD12 S123214DC0BCA70008BDC0625A26F4BDC15820C981422608CE3C0EBDC0D820BD8147260503 S123216DBDC16620B481482605BDC16D20AB810D2604BDC29039B73C15BDC062209BBDE2AB S10D218DD5BDC16639CE21A0DF0BD9 S1232197BDC290CE21A77EC391485754455354000C58204558454355544520434841494EB4 S12321B700203D4C204C4F4F5020524F5554494E4500204454205445535420425553002079 S12321D7BA4E2050414E454C2053454C460022874F20434C4F434B20204E4F0753494E4769 S12321F74C450752554E4E494E470020FA4820444F2042592048414E440021234720474FBF S123221700218B5520754354524C0025405020435055002BFA532053544F5245200820505E S12322374F5254002E5852205245414420524547495354455200227357205752495445203E S10C225752454749535445520015  S1232260227C1B204A21A02287000020BA0000203A25C6D610BDC2DDBDC28739D610BDC2C8 S1232280FEDE0FBDC2AA39CE22C8DF0DBDC158CE3C084FA700A1002703E6003F4C26F4080D S12322A08C3C0D26EDCE22D0DF0DBDC13ECE0000FF3C10BC3C102707F63C10B63C113F08EF S12322C08C100026EB7E204D4D49522E545354005541522E54535400000807200F2F80044F S12322E0600F0F80076003000803200F000801200FCE232DDF0DCE22D8BDC11DCE0000BD08 S1232300C158B73C15BC3C102707F63C10B63C113FB63C098B10B73C0924037C3C08088CD1 S10D2320100026DECE0000BDC1C28D S123232A7E204D4A554D5000CE236BDF0DCE0000BDC158BDC1C28603B73C0AB73C15860127 S123234AB73C0A08BC3C102707F63C10B63C113FB73C158C0FFF26DBCE0000BDC1C27E2061 S123236A4D5053482F504F5000CE23B7DF0DCE0111C604BDC158DF3009BDC1C2CE22E7BDF9 S123238AC117DE30BD208D5A26ECCE22ECBDC11DCE0888BC3C102707F63C10B63C113FB72D S12323AA3C15BD20A38C808826E97E204D444550544800CE23F1DF0DCE0000BDC158BDC14B S12323CAC2DF30CE22DDBDC11DDE3008BC3C102707F63C10B63C113FB73C15088C10002614 S11123EAEBB73C157E204D50432D494E430069  S12323F8CE241DDF0D8670B73C0BBDC158CE00004FB73C0CBC3C0E2703BDE1AA084C81FF94 S123241826EF7E204D434E53542E54455354009610B73C0C8660B73C0BBDC158BDC0248179 S12324382F260AF63C0CCB10F73C0C2007812C260B7C3C0CB63C0CBD208720E039BDC1588F S12324585FF73C0ECEC2A5BDC11DF73C0F868DB73C0CB73C15CE22E2BDC11DCE3C10BDC090 S1232478E3BDC06217BDC0C9BDC06286F8B73C0CB63C0FBDC0C9BDC0780D5624C739CE250F S123249834DF0DCEC2A5BDC11D868DB73C0CCEFFFFFF3C0EBDC158B73C15CE0000DF0FBDB2 S10C24B8C0FBBDE003810D26F90F  S12324C1CE0000DF2E7F0030BDC158D62F962ECE0000BDC228CE000086EDB73C0CB73C1511 S12324E1862DB73C0CB73C15BDC0FBBDE003815326F9C607BDE0035A26FABDE01A9731BDEF S1232501E01A9730BDE003810D26F9CE22E2BDC11DDE30BC3C10270C962FBD2087F63C1087 S1232521B63C113FDE2E8C00FF270508DF2E20987E204D4D415000CE25C7BD201520F8CE69 S123254125C0DF0BCE254B7EC391094A204A554D50530022F15020505553482E504F5000B5 S1232561233254204445505448204F4620535441434B0023734920494E43204F462050438C S10E25810023BD4B20434F4E53540079 S123258C23F853205352432F4453540024275220494E54455250540024554D204D415052A2 S12325AC4F4D00249658204558454320434841494E00253875434F4E54520006204A25C0E8 S12325CC22F10000233200002373000023BD000023F80000203A2CA373E00460F061C004FD S12325EC60F06FE004600D6F800970006E0204600D20E02460F0C2600460F082600460F052 S123260C80E204605064C20460F0C0E20460502F8004400D2F800440F001000F200FCE26AE S123262C68DF0DCE25E4BDC11DBDC158B73C15CE0000BC3C0E2703BDE1AACE266DDF0DCE85 S10E264C25E9BDC11DCE0001BC3C0E01 S12326572703BDE1AAB73C150826F2BDC15F7E204D4F555431004F55543200CE26A6DF0D24 S1232677BDC158CE0000DF2EFF3C0ECEC2A0BDC11DB73C15CEC2A5BDC11DDE2EBC3C0E2769 S123269703BDE1AADE2E0826DDBDC15F7E204D494E5000CEFFFE2402DE0FDF30CE2706DF47 S12326B70DBDC1585FDE30DF2EFF3C0E8660CE25EEBDC11DB73C0BB73C15CEC2A5BDC11D21 S12326D7DE2EBC3C0E270A36840FBD208732BDE1AADE2EBD20A3DF2E4C817026D1DE30BD5D S12326F7208DDF305CC1102DBCBDC15F7E204D5348494654455200CE2753DF0DCE0000DF2F S10C27172EBDC1588670CE25F3D5  S1232720BDC11DB73C0BB73C15CEC2A5BDC11DDE2EBC3C0E270A36840FBD208732BDE1AA3A S1232740DE2E08BD20A3DF2E4C818026D0BDC15F7E204D4D41534B00CE279EDF0DCE000050 S1232760DF2E4F5FBDC158DE2EBDC2AA8B11972E972F5CC1102DF0CE0000DF2E4F5FBDC216 S1232780DD9C2E27093617BD2087BDE1AA36DE2E8B11972E972F5CC1102DE37E204D52453D S12327A04741445200CE2809DF0DBDC158C610CE4444BDC2AACE6C02DF304FCE280BDF2E39 S12327C05FCE1111BDC2AA5CCE2222BDC2AACE8888FF3C0ECE25F8BDC11DDE30FF3C08B731 S10E27E03C15CEC2A5BDC11DBD288B59 S12327EBBC3C0E2706BD2087BDE1AAD631CB80D73124037C00304C81082DBA7E204D535272 S123280B430066663333444411112222AAAACCCC8888CE285BDF0DBDC1585FCE1111BDC269 S123282BAA5CCE2222BDC2AACE25FDBDC11DCE285DDF2EC6204FF73C088D45BC3C0E2706E8 S123284BBD2087BDE1AACB044C81082DE97E204D4643540033331110EEEE3333000022222E S123286B3333CCCCBDC2593637DE2EBDC287BDC078D6309631DE2EEE003F3332BDC270396C S123288BDE2E0808DF2EEE0039DF2EBDC1585FEE00BDC2AAC6108DE8BDC2AA860297328D2E S10C28ABDFDF34DE34BDC1175F28  S12328B4BDC2DDDF308DD09C3027028DAEC610BDC2DDDF308DC19C3027028D9F7A00322686 S12328D4D939DF2EBDC1585FEE00BDC2AAC6108DA6BDC2AA860497327F0033CE2611963370 S12328F484012703CE2616BDC1175FBDC2DDDF308D859C302703BD286FC610BDC2DDDF300B S1232914BD288B9C302703BD286F7C00337A003226C939CE2940DF0DCE2948BD2894CE2990 S123293444DF0DCE2956BD28947E204D42514C00425152008888888826021111111122220A S123295422221111222226070888911104444888CE2983DF0DBDC158C601CE0001BDC2AA43 S10C2974CE2988BD2894CE2996D1  S123297DBD28947E204D4D554C540000050002260C000280010001C000FFFB0002260C7F66 S123299DFD80013FFF4000CE29CBDF0DBDC158C601CE0002BDC2AACE29CFBD28D6C601CEC0 S12329BDFFFEBDC2AACE29E3BD28D67E204D4449560000018000FFFF80000003000000016A S12329DD000000020001FFFF800000018000000300010005000100060002CE2A68DF0DBDB9 S12329FDC1585FCEFFFFBDC2AA5CCE0000BDC2AACE25FDBDC11DCEFFFFBC3C0E2703BDE1D1 S1232A1DAA8680B73C09CE0000BC3C0E2703BDE1AAB73C158680B73C09CE0000BC3C0E279E S10C2A3D03BDE1AAB73C1586A013  S1232A46B73C09CEFFFFBC3C0E2703BDE1AAB73C15CE0000BC3C0E2703BDE1AABDC15F7E83 S1232A66204D43415252592E494E00CEFFFE2402DE0FDF2ECE2ACFDF0D5FBDC290CE261B7E S1232A86BDC11DBDC158DE2E4FFF3C0EB73C15BD208D4C81102DF2BDC259CE2620BDC11D22 S1232AA6BDC2704FBD20A3BC3C0E2706BD2087BDE1AAB73C154C81102DEADE2EBD20A3DF08 S1232AC62E5CC1102DB47E204D535441434B00CE2B8DDF0DCE2B96DF2EBDC158BD288B5F9C S1232AE6BDC2AA5CBD288BBDC2AACE0000BDC1C2CE25FDBDC117CE2625BDC11D8604973016 S10C2B06DE2E0808DF2EA6005F94  S1232B0F48597A003026F98A07B73C0AF73C09B73C155FB63C118BFCC900DE2EE801270890 S1232B2FDE2EE600B63C113FDE2E8C2BF026A4CE0000BDC1C2CE2B92DF0DCE261BBDC117A8 S1232B4F8660B73C0BB73C15CE2625BDC11DFE3C108C000327013FBDC290BDC158CE0000CF S1232B6FBDC1C2CE25E4BDC117CE2625BDC11DB73C15FE3C108C001027013F7E204D434F10 S1232B8F4E4400434F4E445300008000000101000000000100000000000200800000000212 S1232BAF018000800002010000000004008000000004010000000008008888888808010044 S10C2BCF000000100100010000E7  S1232BD81000000000002000FFFF00012001000000000000000000008001CE2CA4BD201578 S1232BF820F8CE2C05DF0BCE2C097EC391414C55000E4F204F55545000262A4920494E509C S1232C180026724820534849465445520026AA4D204D41534B00270E5220524547204144F0 S1232C38520027585520534F555243450027A550204F5045524154494F4E5300281D542068 S1232C5853482E444553540029274C204D554C5400296456204449560029A459204341525F S1232C7852590029F75320535441434B002A714E20434F4E444954494F4E002AD558204518 S10D2C9858454320434841494E00CB S1232CA22BF210204A2C05262A00002672000026B1000126B1FFFE270E00002758000027D7 S1232CC2A50000281D0000292700002964000029A4000029F700002A7800012A78FFFE2ACE S1232CE2D500008601B73C0F86DDB73C0CB73C157EC211368601B73C0F86DDB73C0CB73CA1 S1232D0215327EC23DDE0FBDC158BDC1FEBDC211BDC0464D27F739DE0FBDC2FED60F9610BE S1232D22BDC158BDC228BDC23D36BDC0464D3227F539DE0FBDC2FEBDC158BDC1FED60F9650 S1232D4210BDC228BDC1FEBDC0464D27F039BDC158CE0000BDC1FECEFFFFBDC211CE000090 S10C2D62BDC211BDC0464D27EEAF  S1232D6B39DE0FDF2EBDC158BDC1FED7309731CE0030BDC0E3BDC024813A260EBDC2FE364F S1232D8BD60F9610DE2EBDC22832812C2708815C2709BDC15F39DE2E082003DE2E09DF2E5C S1232DABBDC078BDC287BDC06220BDDF0FCE0000DF30DE0FDF2E200BDF0FDE0FDF30CE00A5 S1232DCB00DF2ECE2E17DF0DBDC158BDC1FECE0000962FD62EBDC23D9B31D9300826F6CE6C S1232DEB0000BDC211912F2604D12E270DDF32BDC287BDC078DE2E3FDE32962FD62E9B311B S1232E0BD930972FD72E0826D97E204D4D454D00CEC2117D00102703CE2CE5FF2D10FF2D5F S10D2E2B47FF2D5DFF2D63FF2D749A S1232E35FF2DEECEC23D7D00102703CE2CF5FF2D29FF2D44FF2D92FF2DE139CE2EEEBD205C S1232E551520F8CE2E63DF0BCE2E6E7EC391504F52542E53544F5245000952205245414410 S1232E75204C4F4F50002D0757205752495445204C4F4F50002D19512052442E5752204CBF S1232E954F4F50002D344F204F5343494C4C4154494E4720414452002D5050205041545405 S1232EB545524E002DB84E2052414E444F4D002DC54920494E5350454354002D6C53205330 S1232ED545542042414E4B002E1B58204558454320434841494E002E50042DB600002DC346 S10D2EF500012DB6FFFF2DC3553177 S9030000FC.EOR..EOF.