S0030000FC  S10D002C00000000000000000000C6  S12320037E22017E23CB7E25497EE0007E276CDE0FDF26BDC158BDC1FED72C972DCE002C4C  S1232023BDC0E3BDC024813A260EBDC2FE36D60F9610DE26BDC22832812C2708815C2709A5  S1232043BDC15F39DE26082003DE2609DF26BDC078BDC287BDC06220BD7F00309610D60F31  S123206354462403730030D7269727BDC158DE26BDC1FE361733D73297337D0030270117A5  S1232083BDC0C9BDC024813A261BBDC2FE3696107D00302604973320029732D6339632DEC2  S12320A326BDC22832815C260A73003027C0DE2609200C812C260C73003026B2DE2608DF05  S10D20C32620ABBDC15F39BDE00368  S12320CD812E2619BDE003810D26F9BDC0FBBDE003810D26F93131313131313139810D26AB  S12320ED05BDC0FB20D781412DD3804139378DCD168DCA484848481B163339BD20FA972D49  S123210DBD20FA972C962D9B189718962C9917971739BDC0FB4F97179718BD2108D62D5D2C  S123212D272CBD2108DE2CDF26BDC15837BD2108962CD62DBDC22808335A26F0BD21087DD9  S123214D001726057D001827CC863FBDC051BDC15F39BDE003810D26F939BDC0FBBDE0035D  S123216D815326F9BDE003813026048DE520EB813926048DDD206B81322661BDE01A972FD3  S10D218D97177A002F274DCE002685  S1232197BDE027AB00AB019717DE26BDC1587A002F7A002F2734BDE01A16BDE01A7D002EA5  S12321B7271DD72C972DBDC1FED12C2604912D2711368D94323FDE2CBDC060BDC28739BDB5  S12321D7C2289B171B97170820C4BDE01A4391172705963FBDC0514FBDC15F39972E2003D5  S12321F77F002EBD21674D27FA39CE2221DF0B960384BF9703B73C13BDC158CEC2A5BDC12B  S123221717BDC15FCE222D7EC3914D41494E204D454D4F525900054920494E53504543541E  S12322370020124C204C4F41440021F74F204F4C4420464F524D4154204C4F414400211FF6  S10C225752205245524541440055  S123226021F359204259544520494E535045435400205C240ADE0F092705B73C1520F8FE79  S12322803C10BDC287B73C15BDC062FE3C0EBDC28739BDC062FE3C10BDC287BDC062C605A1  S12322A0CE3C08A600BDC0C98620BDC051085A26F239BDC290CE0001DF0F7EE2D5CE22E222  S12322C0BDC11DFE3C0EDF3086F2B73C0C9631D63048594859BB3C0FF93C0E9731D730DE8C  S12322E030392E600C60FE2505CE0001DF0FB63C0C81032705B73C1520F4DE0F09DF0F27BD  S123230005B73C1520E8BDC1588DB2BDC287BDC062FE3C0EBDC287BDC062BDC15FFE3C1056  S10F2320BDC287B73C15392E00076002CF  S123232CBDC1588D8CBDC15F9C0F260139B73C15B63C0C810326F620E7BDC078CE23A8BDBE  S123234CC060A600BDC051BDC060088C23B826EFBDC1585FBDC2DDBDC287BDC0625CC110D5  S123236C26F2C610BDC2DDBDC287BDC06286FEB73C0CCE3C0EBDC0E3BDC06286F2B73C0CCD  S123238CCE3C0EBDC0E3BDC062BD22BDBDC287BDC078CE23B8BDC06ABDC15F3930313233D3  S12323AC34353637384D504853474C54202051202020204620204F4646532020504300CE7A  S12323CC23D6DF0BCE23DF7EC3914558454355544552000C52205245534554310022B24FAE  S10E23EC20424F4F54202B20474F008D  S12323F7E2C550205345542075504300E2D55520444953504C415920754144522B75494EB2  S12324175354520022924E204E4558542075494E53545200227354205452414345205245F3  S123243747002345582053494E474C4520535445500022E753204558454320554E54494CEF  S12324572053544F502041445200232C4720474F00C166482048414C5400C16D4920494ED2  S1232477535045435400201259204259544520494E535045435400205CB73C0FCE2502BD7D  S1232497C117368607B73C0CB73C15B73C15FE3C0EB73C15B73C1586FFB73C0C3239B73C3D  S10D24B70FBDC259CE2502BDC117A6  S12324C1BDC270FF3C0E36867DB73C0CB73C15B73C15B73C15B73C1586FFB73C0C323996E2  S12324E110BDC158BD2490BDC15FBDC28739961036BDC2FEDE0F32BDC158BD24B5BDC15FA3  S1232501392E0007606D9610D60FCE0000BDC158BDC228088CFFF026F7BDC15F39CE000021  S1232521094F5FBDC158BDC22809864FC602BDC2280986305FBDC228098600C600BDC22854  S12325414FBD24B5BDC15F39CE2554DF0BCE255C7EC3914445564943455300055220524518  S12325614144204445564943450024E057205752495445204445564943450024EF50205058  S10C258141545445524E00250753  S123258A4920494E53504543540020124D204D414B4520424D4400251ECE0000DF30CE0808  S12325AA00DF32C604DE32BDC1909734DE30BDC1909134271DBDC28736BDC06217BDC0C9AC  S12325CABDC06232BDC0C9BDC0629634BDC0C9BDC0785A2AD008DF30DE3208DF328C100082  S12325EA26C139DE0FDF30BDC08581042EF99732BDC062D632BDC190BDC0C9BDC024813AA3  S123260A2609BDC0BCBDC17BBDC024812C270139C104260708DF3086FF97327C0032BDC01A  S123262A78BDC287862DBDC0519632BDC09020C0BDE003810D26F939BDC0FBBDE003815366  S10D264A26F9BDE003803936273776  S1232654BDE01A368003973232CE0001BDE027AB00AB019730DE01BDE01AD634BDC17B9B12  S1232674309730087A003226EEBDE01A4391302706CE26BBBDC06A32397F0034BDC0FBBDB2  S1232694E003810D2603BDC0FB815326F2BDE003810D26F9BD26424D26FABD263A7C003478  S12326B4D634C1042FD6395853554D2045525200BDE003810D26F939BDC0FBBDE00381532D  S12326D426F9BDE003803936274CBDE01A368003973232CE0001BDE027AB00AB019730DEC7  S12326F401BDE01A9734BDC1909134270F368DC032BDC0C9BDC07896343F20BC96349B30CC  S10E27149730087A003226D9BDE01A85  S123271F4391302706CE275ABDC06A3239CE2763DF0DC600BDC0FBBDE003810D2603BDC06E  S123273FFB815326F2BDE003810D26F9BD26CC4D26FABD26C45CC1042FDA395853554D20AF  S123275F4552520055524F4D20434D5000CE2777DF0BCE27847EC3914D4943524F2D4D4550  S123277F4D4F525900054920494E53504543540025ED5A20434845434B2052414D0025A3B9  S123279F4C204C4F41442052414D2046524F4D20524F4D00E3B354204C4F41442052414DFE  S12027BF2046524F4D205441504500268D5220524552454144205441504500272CE6  S9030000FC .EOR..EOF.